:100000000C9434000C9446000C9446000C9446006A
:100010000C9446000C9446000C9446000C94460048
:100020000C9446000C9446000C9446000C94490035
:100030000C9446000C9446000C9446000C94460028
:100040000C9446000C9446000C9446000C94460018
:100050000C9446000C9446000C9446000C94460008
:100060000C9446000C94460011241FBECFEFD8E03C
:10007000DEBFCDBF21E0A0E0B1E001C01D92A23003
:10008000B207E1F70E9448000C9472000C94000043
:10009000FFCF1F920F920FB60F9211242F933F9311
:1000A0008F939F938091000190910101019711F42A
:1000B0002D9A01C02D98209100013091010181E01D
:1000C00090E0232B11F080E090E090930101809369
:1000D00000019F918F913F912F910F900FBE0F9034
:0800E0001F901895F894FFCF62
:00000001FF
